:020000040800F2
:10000000005000205125000895250008952500087E
:10001000952500089525000895250008000000009A
:10002000000000000000000000000000952500080E
:10003000952500080000000095250008952500087A
:1000400095250008952500089525000895250008A8
:100050009525000895250008952500089525000898
:100060009525000895250008952500089525000888
:100070009525000895250008952500089525000878
:100080009525000895250008952500089525000868
:1000900095250008952500089525000839160008C3
:1000A0009525000895250008952500089525000848
:1000B0001515000895250008491500089525000824
:1000C0009525000895250008952500089525000828
:1000D0009525000895250008952500089525000818
:1000E00095250008952500089525000800000000CA
:1000F0000000000000000000000000000000000000
:0C01000000000000000000005FF808F1A3
:1001100081F0004102E0C04683F0004330B54FEA71
:1001200041044FEA430594EA050F08BF90EA020F25
:100130001FBF54EA000C55EA020C7FEA645C7FEAB8
:10014000655C00F0E2804FEA5454D4EB5555B8BFDB
:100150006D420CDD2C4480EA020281EA030382EA4C
:10016000000083EA010180EA020281EA0303362DDE
:1001700088BF30BD11F0004F4FEA01314FF4801CB1
:100180004CEA113102D0404261EB410113F0004FC3
:100190004FEA03334CEA133302D0524263EB43037A
:1001A00094EA050F00F0A780A4F10104D5F1200E18
:1001B0000DDB02FA0EFC22FA05F2801841F1000173
:1001C00003FA0EF2801843FA05F359410EE0A5F147
:1001D00020050EF1200E012A03FA0EFC28BF4CF078
:1001E000020C43FA05F3C01851EBE37101F000452E
:1001F00007D54FF0000EDCF1000C7EEB00006EEB3B
:100200000101B1F5801F1BD3B1F5001F0CD34908C4
:100210005FEA30004FEA3C0C04F101044FEA44521B
:1002200012F5800F80F09A80BCF1004F08BF5FEAA2
:10023000500C50F1000041EB045141EA050130BD82
:100240005FEA4C0C404141EB010111F4801FA4F125
:100250000104E9D191F0000F04BF01460020B1FA7A
:1002600081F308BF2033A3F10B03B3F120020CDAB2
:100270000C3208DD02F1140CC2F10C0201FA0CF090
:1002800021FA02F10CE002F11402D8BFC2F1200CF5
:1002900001FA02F120FA0CFCDCBF41EA0C019040AB
:1002A000E41AA2BF01EB0451294330BD6FEA0404F4
:1002B0001F3C1CDA0C340EDC04F11404C4F12002DF
:1002C00020FA04F001FA02F340EA030021FA04F3F1
:1002D00045EA030130BDC4F10C04C4F1200220FA48
:1002E00002F001FA04F340EA0300294630BD21FA86
:1002F00004F0294630BD94F0000F83F4801306BF4C
:1003000081F480110134013D4EE77FEA645C18BF3F
:100310007FEA655C29D094EA050F08BF90EA020FD6
:1003200005D054EA000C04BF1946104630BD91EACE
:10033000030F1EBF0021002030BD5FEA545C05D1D1
:100340004000494128BF41F0004130BD14F5800410
:100350003CBF01F5801130BD01F0004545F0FE4184
:1003600041F470014FF0000030BD7FEA645C1ABFB9
:10037000194610467FEA655C1CBF0B46024650EAF0
:10038000013406BF52EA033591EA030F41F400211C
:1003900030BDC04690F0000F04BF0021704730B55B
:1003A0004FF4806404F132044FF000054FF0000177
:1003B00050E7C04690F0000F04BF0021704730B5F1
:1003C0004FF4806404F1320410F0004548BF40420D
:1003D0004FF000013EE7C04642004FEAE2014FEA1B
:1003E00031014FEA02701FBF12F07F4393F07F4F3D
:1003F00081F06051704792F0000F14BF93F07F4F6F
:10040000704730B54FF4607401F0004521F00041B1
:1004100020E7C04650EA010208BF704730B54FF0F0
:1004200000050AE050EA010208BF704730B511F03C
:10043000004502D5404261EB41014FF4806404F174
:1004400032045FEA915C3FF4DCAE4FF003025FEAF6
:10045000DC0C18BF03325FEADC0C18BF033202EB7E
:10046000DC02C2F1200300FA03FC20FA02F001FAD8
:1004700003FE40EA0E0021FA02F11444C1E6C04630
:1004800070B54FF0FF0C4CF4E06C1CEA11541DBF2A
:100490001CEA135594EA0C0F95EA0C0F00F0DEF8F5
:1004A0002C4481EA030621EA4C5123EA4C5350EADA
:1004B000013518BF52EA033541F4801143F480132B
:1004C00038D0A0FB02CE4FF00005E1FB02E506F0BC
:1004D0000042E0FB03E54FF00006E1FB03569CF011
:1004E000000F18BF4EF0010EA4F1FF04B6F5007F17
:1004F00064F5407404D25FEA4E0E6D4146EB060689
:1005000042EAC62141EA55514FEAC52040EA5E5011
:100510004FEACE2EB4F1FD0C88BFBCF5E06F1ED8BB
:10052000BEF1004F08BF5FEA500E50F1000041EBF2
:10053000045170BD06F0004646EA010140EA02009F
:1005400081EA0301B4EB5C04C2BFD4EB0C0541EAC1
:10055000045170BD41F480114FF0000E013C00F3D6
:10056000AB8014F1360FDEBF002001F0004170BDFA
:10057000C4F10004203C35DA0C341BDC04F1140413
:10058000C4F1200500FA05F320FA04F001FA05F29F
:1005900040EA020001F0004221F0004110EBD3706C
:1005A00021FA04F642EB06015EEA430E08BF20EA98
:1005B000D37070BDC4F10C04C4F1200500FA04F33B
:1005C00020FA05F001FA04F240EA020001F00041CD
:1005D00010EBD37041F100015EEA430E08BF20EA40
:1005E000D37070BDC4F1200500FA05F24EEA020E88
:1005F00020FA04F301FA05F243EA020321FA04F0B7
:1006000001F0004121FA04F220EA020000EBD3706D
:100610005EEA430E08BF20EAD37070BD94F0000F6D
:100620000FD101F00046400041EB010111F4801FA1
:1006300008BF013CF7D041EA060195F0000F18BF52
:10064000704703F00046520043EB030313F4801F8E
:1006500008BF013DF7D043EA0603704794EA0C0F48
:100660000CEA135518BF95EA0C0F0CD050EA41065E
:1006700018BF52EA4306D1D181EA030101F00041DB
:100680004FF0000070BD50EA410606BF1046194603
:1006900052EA430619D094EA0C0F02D150EA01360F
:1006A00013D195EA0C0F05D152EA03361CBF104650
:1006B00019460AD181EA030101F0004141F0FE41EF
:1006C00041F470014FF0000070BD41F0FE4141F473
:1006D000780170BD70B54FF0FF0C4CF4E06C1CEA73
:1006E00011541DBF1CEA135594EA0C0F95EA0C0F28
:1006F00000F0A7F8A4EB050481EA030E52EA0335E3
:100700004FEA013100F088804FEA03334FF0805503
:1007100045EA131343EA12634FEA022245EA111530
:1007200045EA10654FEA00260EF000419D4208BFE1
:10073000964244F1FD0404F5407402D25B084FEA8E
:100740003202B61A65EB03055B084FEA32024FF43A
:1007500080104FF4002CB6EB020E75EB030E22BF97
:10076000B61A754640EA0C005B084FEA3202B6EB57
:10077000020E75EB030E22BFB61A754640EA5C0006
:100780005B084FEA3202B6EB020E75EB030E22BF96
:10079000B61A754640EA9C005B084FEA3202B6EB97
:1007A000020E75EB030E22BFB61A754640EADC0056
:1007B00055EA060E18D04FEA051545EA16754FEAB8
:1007C00006164FEAC30343EA52734FEAC2025FEAD6
:1007D0001C1CC0D111F4801F0BD141EA00014FF065
:1007E00000004FF0004CB6E711F4801F04BF014336
:1007F0000020B4F1FD0C88BFBCF5E06F3FF6AFAE52
:10080000B5EB030C04BFB6EB020C5FEA500C50F1E1
:10081000000041EB045170BD0EF0004E4EEA113164
:1008200014EB5C04C2BFD4EB0C0541EA045170BD6B
:1008300041F480114FF0000E013C90E645EA060EAF
:100840008DE60CEA135594EA0C0F08BF95EA0C0FDD
:100850003FF43BAF94EA0C0F0AD150EA01347FF425
:1008600034AF95EA0C0F7FF425AF104619462CE7FC
:1008700095EA0C0F06D152EA03353FF4FDAE10465F
:10088000194622E750EA410618BF52EA43067FF4B0
:10089000C5AE50EA41047FF40DAF52EA43057FF440
:1008A000EBAE12E74FEA4102B2F1E04324BFB3F5E9
:1008B000001CDCF1FE5C0DD901F0004C4FEAC002D7
:1008C0004CEA5070B2F1004F40EB830008BF20F0BB
:1008D0000100704711F0804F21D113F13872BCBF75
:1008E00001F00040704741F480114FEA5252C2F1CA
:1008F0001802C2F1200C10FA0CF320FA02F018BF13
:1009000040F001004FEAC1234FEAD32303FA0CFC65
:1009100040EA0C0023FA02F34FEA4303CCE77FEAF4
:10092000625307D150EA01331EBF4FF0FE4040F43E
:100930004000704701F0004040F0FE4040F40000ED
:100940007047C04680F0004002E0C04681F00041A0
:1009500042001FBF5FEA410392EA030F7FEA226C65
:100960007FEA236C6AD04FEA1262D2EB1363C1BFF5
:10097000D218414048404140B8BF5B42192B88BF64
:10098000704710F0004F40F4000020F07F4018BF87
:10099000404211F0004F41F4000121F07F4118BFA7
:1009A000494292EA030F3FD0A2F1010241FA03FC4F
:1009B00010EB0C00C3F1200301FA03F100F0004337
:1009C00002D5494260EB4000B0F5000F13D3B0F1FF
:1009D000807F06D340084FEA310102F10102FE2A6E
:1009E00051D2B1F1004F40EBC25008BF20F00100DE
:1009F00040EA03007047490040EB000010F4000F8C
:100A0000A2F10102EDD1B0FA80FCACF1080CB2EB1E
:100A10000C0200FA0CF0AABF00EBC250524218437D
:100A2000BCBFD0401843704792F0000F81F4000122
:100A300006BF80F400000132013BB5E74FEA4103F5
:100A40007FEA226C18BF7FEA236C21D092EA030F61
:100A500004D092F0000F08BF0846704790EA010FDB
:100A60001CBF0020704712F07F4F04D1400028BF08
:100A700040F00040704712F100723CBF00F50000EA
:100A8000704700F0004343F0FE4040F40000704720
:100A90007FEA226216BF08467FEA236301464202CC
:100AA00006BF5FEA412390EA010F40F480007047DF
:100AB0004FF0000304E0C04610F0004348BF40423E
:100AC0005FEA000C08BF704743F0964301464FF0C1
:100AD00000001CE050EA010208BF70474FF000031D
:100AE0000AE0C04650EA010208BF704711F0004317
:100AF00002D5404261EB41015FEA010C02BF84462E
:100B00000146002043F0B64308BFA3F18053A3F58C
:100B10000003BCFA8CF2083AA3EBC25310DB01FAD3
:100B200002FC634400FA02FCC2F12002BCF1004F57
:100B300020FA02F243EB020008BF20F001007047E8
:100B400002F1200201FA02FCC2F1200250EA4C003C
:100B500021FA02F243EB020008BF20EADC70704782
:100B60004FF0FF0C1CEAD0521EBF1CEAD15392EA90
:100B70000C0F93EA0C0F6FD01A4480EA010C40026C
:100B800018BF5FEA41211ED04FF0006343EA5010C6
:100B900043EA5111A0FB01310CF00040B1F5000F08
:100BA0003EBF490041EAD3715B0040EA010062F1B7
:100BB0007F02FD2A1DD8B3F1004F40EBC25008BFA1
:100BC00020F00100704790F0000F0CF0004C08BFBF
:100BD00049024CEA502040EA51207F3AC2BFD2F18C
:100BE000FF0340EAC250704740F400004FF000039A
:100BF000013A5DDC12F1190FDCBF00F000407047D4
:100C0000C2F10002410021FA02F1C2F1200200FA11
:100C100002FC5FEA310040F1000053EA4C0308BFD8
:100C200020EADC70704792F0000F00F0004C02BF29
:100C3000400010F4000F013AF9D040EA0C0093F0A4
:100C4000000F01F0004C02BF490011F4000F013BFE
:100C5000F9D041EA0C018FE70CEAD15392EA0C0F6C
:100C600018BF93EA0C0F0AD030F0004C18BF31F0D7
:100C7000004CD8D180EA010000F00040704790F0AD
:100C8000000F17BF90F0004F084691F0000F91F051
:100C9000004F14D092EA0C0F01D142020FD193EA17
:100CA0000C0F03D14B0218BF084608D180EA01009F
:100CB00000F0004040F0FE4040F40000704740F07B
:100CC000FE4040F4400070474FF0FF0C1CEAD05249
:100CD0001EBF1CEAD15392EA0C0F93EA0C0F69D0A5
:100CE000A2EB030280EA010C49024FEA402037D010
:100CF0004FF0805343EA111143EA10130CF0004007
:100D00008B4238BF5B0042F17D024FF4000C8B42F6
:100D100024BF5B1A40EA0C00B3EB510F24BFA3EBD6
:100D2000510340EA5C00B3EB910F24BFA3EB9103A6
:100D300040EA9C00B3EBD10F24BFA3EBD10340EA00
:100D4000DC001B0118BF5FEA1C1CE0D1FD2A3FF646
:100D500050AF8B4240EBC25008BF20F001007047FB
:100D60000CF0004C4CEA50207F32C2BFD2F1FF039E
:100D700040EAC250704740F400004FF00003013ACF
:100D800037E792F0000F00F0004C02BF400010F473
:100D9000000F013AF9D040EA0C0093F0000F01F087
:100DA000004C02BF490011F4000F013BF9D041EAA9
:100DB0000C0195E70CEAD15392EA0C0F08D14202DC
:100DC0007FF47DAF93EA0C0F7FF470AF084676E7AF
:100DD00093EA0C0F04D14B023FF44CAF08466EE788
:100DE00030F0004C18BF31F0004CCAD130F0004256
:100DF0007FF45CAF31F000437FF43CAF5FE7C04667
:100E00004FEA4002B2F1FE4F0FD34FF09E03B3EB17
:100E100012620DD94FEA002343F0004310F0004F57
:100E200023FA02F018BF404270474FF000007047AD
:100E300012F1610F01D1420205D110F0004008BF4C
:100E40006FF0004070474FF00000704742000ED234
:100E5000B2F1FE4F0BD34FF09E03B3EB126209D4F5
:100E60004FEA002343F0004323FA02F070474FF0AB
:100E70000000704712F1610F01D1420202D14FF020
:100E8000FF3070474FF000007047C04610B540F289
:100E90000003C2F2000340F20402C2F2000218682A
:100EA0001168FFF753FD40F20001C4F2A021FFF7E3
:100EB00057FE40F20001C4F2C821FFF705FFFFF71B
:100EC000C5FFC0F1500080B210BDC0462DE9F0430F
:100ED00087B040F20004C4F2C8242146FFF740FE68
:100EE000FFF78EFFFFF7E8FD054640F20001C4F270
:100EF0007A41FFF7E9FEFFF783FF04902846214679
:100F0000FFF7E2FEFFF77CFF0390039946F2676468
:100F1000C6F2666484FB01324FEAE173C3EBA202BE
:100F20004FEA42034FEAC2021344C3EB01020392A9
:100F3000284640F20001C4F22011FFF7C5FEFFF77A
:100F40005FFF0290029984FB01324FEAE173C3EB29
:100F5000A2024FEA42034FEAC2021344C3EB01026A
:100F600002922846FFF74CFF84FB00244FEAE0730F
:100F7000C3EBA4024FEA42034FEAC2021344C3EB9D
:100F800000020192049B092B24D8DFE803F0080536
:100F90000B0E1114171A1D204FF041071CE04FF0E3
:100FA000770719E04FF03B0716E04FF06B0713E0AF
:100FB0004FF04D0710E04FF06E070DE04FF07E0749
:100FC0000AE04FF0430707E04FF07F0704E04FF0DF
:100FD0006F0701E04FF08007039B092B24D8DFE85F
:100FE00003F008050B0E1114171A1D204FF04106CF
:100FF0001CE04FF0770619E04FF03B0616E04FF08B
:101000006B0613E04FF04D0610E04FF06E060DE05A
:101010004FF07E060AE04FF0430607E04FF07F06F0
:1010200004E04FF06F0601E04FF08006029B092BB1
:1010300024D8DFE803F008050B0E1114171A1D2041
:101040004FF041051CE04FF0770519E04FF03B05EC
:1010500016E04FF06B0513E04FF04D0510E04FF038
:101060006E050DE04FF07E050AE04FF0430507E006
:101070004FF07F0504E04FF06F0501E04FF0800571
:10108000019B092B24D8DFE803F008050B0E11148F
:10109000171A1D204FF041041CE04FF0770419E0AF
:1010A0004FF03B0416E04FF06B0413E04FF04D049B
:1010B00010E04FF06E040DE04FF07E040AE04FF0B8
:1010C000430407E04FF07F0404E04FF06F0401E0B9
:1010D0004FF0800440F60000C4F201004FF0100110
:1010E0004FF0010200F0D2FB4FF000030593059B87
:1010F0001F2B36DC45EA042346F0800242EA032235
:1011000047EA022440F600031D46C4F201054FF0F1
:1011100020064FF000084FF008094FF0010728465D
:101120003146424600F0B2FB14F0010F05D02846CC
:1011300049463A4600F0AAFB04E0284649464246A2
:1011400000F0A4FB284631463A4600F09FFB059B81
:1011500003F101030593059B1F2B02DC4FEA5404A6
:10116000DDE740F60000C4F201004FF010014FF03F
:10117000010200F08BFB07B0BDE8F08300B583B03F
:101180004FF000004FF0080100F086FB4FF4807331
:101190000093A3F580738DF8043003F10C038DF8F0
:1011A0000530A3F10B038DF80630684601F0CEF848
:1011B00003B000BD2DE9F04140F23C01C2F2000154
:1011C0004FF000060E804E804FF00108A1F8048019
:1011D000CE800E8140F60004C4F20004204600F0E8
:1011E000EDFE20464FF0600100F0B6FD20464FF0C6
:1011F000040100F0D9FD20464FF0800100F0E2FD2F
:101200002046414600F088FD20464FF0040142464A
:1012100000F092FD40F22201C2F200014FF04F03B4
:101220008B804FF023030B80CE804E8040F2004530
:10123000C4F20005284600F07DFC40F22C04C2F206
:1012400000044FF060032380A4F8028040F2000302
:10125000C2F200031868FFF7F9FDE08026812846F6
:10126000214600F0E5FC28464FF0080100F090FD13
:101270002846414600F07CFD2846414600F04CFDE2
:10128000BDE8F08170B582B04FF000604FF0000112
:1012900001F04EF84FF01E038DF804304FF00006B9
:1012A0008DF805604FF001048DF806408DF8074079
:1012B00001AD284600F0F8FF4FF017038DF8043019
:1012C0008DF805608DF806408DF80740284600F03F
:1012D000EBFF4FF01C038DF804308DF80560A3F18F
:1012E0001A038DF806308DF80740284600F0DCFF21
:1012F00002B070BD2DE9704183B04FF04008ADF8E9
:1013000004804FF004038DF807304FF003058DF88B
:1013100006500DEB030640F60040C4F201003146D2
:1013200000F048FA4FF44073ADF804304FF0480332
:101330008DF807308DF8065040F60004C4F2010421
:101340002046314600F036FAADF804804FF018031D
:101350008DF807308DF806502046314600F02AFA05
:101360004FF03803ADF804304FF010038DF807301C
:101370008DF806502046314600F01CFA03B0BDE857
:101380007081C04610B500F0ABFA4FF4803000F029
:10139000CBFA00F0B1FB40F22003C2F20003187058
:1013A00001282CD100F10F0000F0F6F94FF00200F7
:1013B00000F0E6F94FF0000000F004FB4FF00000F1
:1013C00000F018FB4FF4806000F008FB4FF4803011
:1013D0004FF4E01100F0CEFA4FF0010000F0D8FA1F
:1013E0004FF03904204600F069FB0028FAD04FF096
:1013F000020000F0D3FA00F0DDFA0828FBD14FF02C
:1014000006004FF0010100F017FB4FF00C004FF009
:10141000010100F0FBFA10BD2DE9F041FFF7B2FF2A
:10142000FFF730FFFFF766FFFFF7C4FEFFF7A6FEEA
:1014300000F076F940F20406C2F2000640F2000520
:10144000C2F2000540F20804C2F2000440F2004378
:10145000C4F2000398464FF4967700F049F908B9B2
:10146000286800E03068FFF731FD23781BB1FFF7F3
:101470000DFDA8F83400384600F04AF9EDE7C04603
:101480002DE97043814640F24C04C2F2000420680A
:1014900040F25005C2F200052E68D4F80080FFF734
:1014A0000BFB3146FFF75CFB4946FFF751FA064656
:1014B00008F10100FFF700FB01463046FFF704FC8E
:1014C0002860236803F101032360216846F2676303
:1014D000C6F2666383FB01234FEAE172C2EBE302CB
:1014E0004FEA82034FEA02121344C3EB0102226067
:1014F000236863B940F25003C2F200031A6840F255
:101500000403C2F200031A604FF001021A71BDE831
:101510007083C04610B54FF080404FF0010100F0DD
:1015200085FC01280DD14FF080404FF0010100F003
:1015300083FC40F21802C2F20002136803F10103B7
:10154000136010BD000000002DE9704340F600005C
:10155000C4F200004FF0040100F068FC012864D1DF
:1015600040F60004C4F2000420464FF0040100F0ED
:1015700063FC204600F056FC40F20403C2F2000374
:10158000D880DB889BB2002B45D040F60000C4F227
:10159000000000F043FC40F20405C2F20005EC88B4
:1015A000A4B2FEF707FF4FF0000240F20003CCF2B6
:1015B0005903FEF765FF804689462046FEF7FAFE8E
:1015C00002460B4640464946FFF784F84FF00002BA
:1015D00040F20003C4F25903FEF7A0FDFFF762F9E1
:1015E000A860A8684FF08441FFF7B0F9FEF7F4FE59
:1015F0000FA3D3E90023FFF76DF8FFF753F9FFF7C7
:101600003FFFEA8892B24AF20023C0F24A4393FBBA
:10161000F2F3EB6009E040F20403C2F200034FF082
:1016200000029A604FF00002DA60BDE87083C046A5
:1016300014AE47E17A14DE3F10B54FF4807000F02D
:10164000D3FE60B340F60000C4F201004FF4007115
:1016500000F016F940F24803C2F2000318701B783C
:10166000012B0AD140F20004C2F2000420684FF0BE
:101670007C51FFF76BF9206009E040F20004C2F2F0
:10168000000420684FF07C51FFF762F920604FF4AE
:101690007A7000F011F84FF4807000F0B5FE10BDC4
:1016A00040F25802C2F2000240F21803C2F20003F4
:1016B0001B6818441060704740F26802C2F20002D2
:1016C00040F21803C2F200031B6818441060704710
:1016D00040F21802C2F2000240F25803C2F20003C4
:1016E000126818688242B4BF002001207047C046CB
:1016F00040F21802C2F2000240F26803C2F2000394
:10170000126818688242B4BF002001207047C046AA
:1017100010B5FFF7C5FFFFF7DBFF0028FBD010BDBA
:1017200010B54FF00100014600F086F94FF08040FF
:1017300000F07AFC40F22201C2F2000140F69F73F1
:101740008B804FF011030B804FF00004CC804C8055
:101750004FF0804000F0EEF94FF080404FF0010173
:101760000A4600F0E9FA40F21803C2F200031C60D6
:101770004FF080404FF0010100F0CEFA10BDC0469E
:1017800042F20003C4F202031A6802F0380240EA8F
:10179000020018607047C04642F20002C4F2020222
:1017A000136823F010031360136840EA030010600D
:1017B0007047C0462DE9F00306460846CB7803F093
:1017C0000F0713F0100F1CBF8B781F430B783BB330
:1017D00034684FF0000C4FF001054FF00F0805FA88
:1017E0000CF2038802EA0301914213D14FEA8C0202
:1017F00008FA02F36FEA030303EA040307FA02F2AA
:1018000043EA0204C378282B08BF716102D0482B39
:1018100008BF31610CF1010CBCF1080FDFD134605D
:101820000388FF2B29D975684FF0000C4FF0010891
:101830004FF00F090CF1080308FA03F1038801EADD
:1018400003048C4213D14FEA8C0309FA03F26FEAC6
:10185000020202EA050207FA03F342EA0305C3782B
:10186000282B08BF7461C378482B08BF31610CF185
:10187000010CBCF1080FDDD17560BDE8F0037047C5
:10188000836819420CBF0020012070470AB1016132
:1018900000E041617047C04630B401F003044FEAF4
:1018A00084044FEA910140F20002C4F2010201F106
:1018B000020152F821504FF00F0303FA04F36FEACC
:1018C000030303EA050342F8213052F8213000FAFD
:1018D00004F040EA030042F8210030BC7047C046E3
:1018E00041F20001C4F202010B6843F001030B60F6
:1018F0004A6840F20003CFF6FF0302EA03024A609F
:101900000A684FF6FF73CFF6F66302EA03020A6035
:101910000B6823F480230B604B6823F4FE034B60B9
:101920004FF41F038B60704741F20003C4F20203BF
:101930001A6822F480321A601A6822F480221A602F
:10194000B0F5803F03D0B0F5802F11D108E041F20F
:101950000002C4F20202136843F48033136007E00C
:1019600041F20002C4F20202136843F4A0231360A0
:101970007047C04641F20003C4F202035A6822F4E1
:101980007C1240EA020040EA010058607047C046FD
:1019900040F26003C4F242231860704741F2000332
:1019A000C4F202035A6822F0030240EA02005860BF
:1019B0007047C04641F20003C4F20203586800F0C9
:1019C0000C00704741F20003C4F202035A6822F08F
:1019D000F00240EA020058607047C04641F200033E
:1019E000C4F202035A6822F4E06240EA020058603E
:1019F0007047C04641F20002C4F20202536823F469
:101A0000605343EAC00353607047C04641B141F29E
:101A10000002C4F20202936940EA0303936109E001
:101A200041F20003C4F2020399696FEA000202EA7C
:101A300001029A617047C04641B141F20002C4F20E
:101A40000202D36940EA0303D36109E041F20003D3
:101A5000C4F20203D9696FEA000202EA0102DA6104
:101A60007047C04641B141F20002C4F20202D3689D
:101A700040EA0303D36009E041F20003C4F2020329
:101A8000D9686FEA000202EA0102DA607047C046D4
:101A900041B141F20002C4F20202136940EA0303B9
:101AA000136109E041F20003C4F2020319696FEA0D
:101AB000000202EA01021A617047C0464FEA501361
:101AC000012B02BF41F20003C4F202031B680CD0D9
:101AD000022B03BF41F20003C4F202031B6A41F26E
:101AE00000031CBFC4F202035B6A00F01F0023FA6C
:101AF00000F000F00100704710B582B04FF0000315
:101B000001934FF031042046FFF7D8FF019B03F10A
:101B100001030193019BB3F5A06F01D00028F2D01F
:101B20004FF03100FFF7CAFF003818BF012002B0A4
:101B300010BDC04610B403881FFA83FC42F6004271
:101B4000C4F2010243F20043C4F20103984214BFFD
:101B500000230123904214BF1C4643F00104F4B952
:101B600040F20043C4F20003984214BF0023012353
:101B7000B0F1804F08BF43F0010383B940F6000283
:101B8000C4F2000240F60043C4F20003984214BFBE
:101B900000230123904208BF43F0010343B14FF6F5
:101BA0008F73C0F200030CEA03034A8843EA020C75
:101BB00041F20002C4F2000241F20043C4F2000309
:101BC000C31A18BF012390420CBF002303F0010386
:101BD00043B14FF6FF43C0F200030CEA0303CA8887
:101BE00043EA020CA0F800C08B8883850B8803852C
:101BF000B4B944F20002C4F2010244F20043C4F258
:101C00000103984214BF00230123904208BF43F010
:101C100001032BB944F60003C4F20103984201D139
:101C20000B7A03864FF00103838210BC7047C046D5
:101C3000F0B40C46038C23F001034FEA03434FEA50
:101C400013430384018C83889DB2038B9EB2278843
:101C500021F002014FEA01414FEA114163882289D4
:101C600043EA02039BB243EA010C42F60042C4F28B
:101C7000010243F20043C4F20103984214BF00235F
:101C80000123904208BF43F00103B3B944F20002BC
:101C9000C4F2010244F20043C4F20103984214BFAB
:101CA00000230123904208BF43F001032BB944F6FF
:101CB0000003C4F2010398421ED14FF6F773C0F23D
:101CC00000030CEA0303628943EA02034FF6FB7246
:101CD000C0F2000203EA0202A38842EA030C4FF6B4
:101CE000FF41C0F2000105EA0101E389A28943EA4C
:101CF00002039BB243EA010585804FF68C73C0F264
:101D0000000306EA030343EA07030383E3888386A9
:101D1000A0F820C0F0BC704729B103889BB243F003
:101D20000103038007E0038823F001034FEA034324
:101D30004FEA1343038070472AB183899BB241EA7B
:101D40000303838106E083899BB26FEA010203EA01
:101D5000020383817047C046038923F070034FEA72
:101D600003434FEA134341EA030101817047C04630
:101D700029B103889BB243F08003038007E0038806
:101D800023F080034FEA03434FEA13430380704775
:101D9000038B23F008034FEA03434FEA134341EA5E
:101DA000030101837047C046038923F007034FEA0C
:101DB00003434FEA1343038103899BB241EA0301C2
:101DC00001817047038923F080034FEA03434FEA00
:101DD0001343038103899BB241EA030101817047E8
:101DE000038B23F00C034FEA03434FEA13430383AF
:101DF000038B9BB241EA030101837047038B23F4F9
:101E000040634FEA03434FEA13430383038B9BB2C0
:101E100043EA01239BB203837047C046808E80B2A1
:101E20007047C046008F80B27047C046038A19428F
:101E30000CBF0020012070476FEA010189B20182C6
:101E40007047C04670B415461E46038C23F001034C
:101E50004FEA03434FEA13430384038B9CB2038C82
:101E60001FFA83FC42F60042C4F2010243F200432F
:101E7000C4F20103984214BF00230123904208BF1B
:101E800043F00103F3B940F20043C4F20003984267
:101E900014BF00230123B0F1804F08BF43F00103BA
:101EA00083B940F60002C4F2000240F60043C4F2D7
:101EB0000003984214BF00230123904208BF43F05F
:101EC00001033BB12CF0020343F001039BB243EA50
:101ED000010106E02CF00A0343F001039BB243EA40
:101EE000010124F0F30345EA03039BB243EA06131E
:101EF0009BB20383018470BC7047C04670B4154622
:101F00001E46038C23F010034FEA03434FEA1343AA
:101F10000384038B9CB2038C1FFA83FC42F60042BD
:101F2000C4F2010243F20043C4F20103984214BF19
:101F300000230123904208BF43F00103F3B940F2AC
:101F40000043C4F20003984214BF00230123B0F100
:101F5000804F08BF43F0010383B940F60002C4F28A
:101F6000000240F60043C4F20003984214BF00236D
:101F70000123904208BF43F0010343B12CF020033A
:101F800043F010039BB243EA011399B206E02CF030
:101F9000A00343F010039BB243EA010140F6FF4364
:101FA000C0F2000304EA030343EA05239BB243EAB9
:101FB00006339BB20383018470BC70472DE9F04166
:101FC00005460C46498800290CBF02270027A28835
:101FD000012A0CBF0226012623888BB92389FFF72B
:101FE00031FF2846E188FFF7FBFE28463946324696
:101FF0002389FFF783FF2846E188FFF7FFFE10E003
:102000002389FFF77BFF2846E188FFF7F7FE284684
:10201000394632462389FFF715FF2846E188FFF746
:10202000DFFEBDE8F081C04610B542F60043C4F2C1
:10203000010398420CD14FF400604FF00101FFF70B
:1020400011FD4FF400604FF00001FFF70BFD2AE196
:10205000B0F1804F0BD14FF001000146FFF718FDA2
:102060004FF001004FF00001FFF712FD1BE140F2BD
:102070000043C4F2000398420CD14FF002004FF02D
:102080000101FFF705FD4FF002004FF00001FFF7DF
:10209000FFFC08E140F60003C4F2000398420CD1B3
:1020A0004FF004004FF00101FFF7F2FC4FF0040085
:1020B0004FF00001FFF7ECFCF5E040F60043C4F2FE
:1020C000000398420CD14FF008004FF00101FFF7D8
:1020D000DFFC4FF008004FF00001FFF7D9FCE2E011
:1020E00041F20003C4F2000398420CD14FF01000FB
:1020F0004FF00101FFF7CCFC4FF010004FF0000152
:10210000FFF7C6FCCFE041F20043C4F2000398425F
:102110000CD14FF020004FF00101FFF7B9FC4FF058
:1021200020004FF00001FFF7B3FCBCE043F2004396
:10213000C4F2010398420CD14FF400504FF001015A
:10214000FFF790FC4FF400504FF00001FFF78AFCBE
:10215000A9E044F60043C4F2010398420CD14FF4C5
:1021600000204FF00101FFF77DFC4FF400204FF0FD
:102170000001FFF777FC96E045F20003C4F201038B
:1021800098420CD14FF480104FF00101FFF76AFC28
:102190004FF480104FF00001FFF764FC83E045F23C
:1021A0000043C4F2010398420CD14FF400104FF0E9
:1021B0000101FFF757FC4FF400104FF00001FFF74B
:1021C00051FC70E041F60003C4F2000398420CD1C8
:1021D0004FF040004FF00101FFF75AFC4FF0400074
:1021E0004FF00001FFF754FC5DE041F60043C4F2FC
:1021F000000398420CD14FF080004FF00101FFF72F
:1022000047FC4FF080004FF00001FFF741FC4AE02F
:1022100042F20003C4F2000398420CD14FF48070E4
:102220004FF00101FFF734FC4FF480704FF00001D4
:10223000FFF72EFC37E044F20003C4F2010398429A
:102240000CD14FF480304FF00101FFF70BFC4FF43D
:1022500080304FF00001FFF705FC24E044F200431A
:10226000C4F2010398420CD14FF400304FF0010149
:10227000FFF7F8FB4FF400304FF00001FFF7F2FBDF
:1022800011E044F60003C4F2010398420BD14FF46D
:1022900080204FF00101FFF7E5FB4FF480204FF065
:1022A0000001FFF7DFFB10BDC3787BB34EF6005390
:1022B000CEF20003DB686FEA030303F4E0634FEA46
:1022C0001323C3F10402417801FA02F14FF00F0227
:1022D00022FA03F2837802EA030242EA010200785A
:1022E0004FEA0212D2B24EF20011CEF2000101EB1F
:1022F000000383F800234FEA501200F01F004FF054
:10230000010303FA00F341F8223010E003784FEAAA
:10231000531103F01F034FF0010202FA03F24EF2D1
:102320000013CEF2000301F1200143F82120704791
:102330004FF68073C1F6FF7301EA030141EA000121
:102340004EF60053CEF200039960704730B4044655
:102350008379002B39D040F20041C4F201010B68AF
:1023600000686FEA000202EA03030B604B6802EAAE
:1023700003024A6022790A44136843EA00031360A7
:102380008B6825686FEA050202EA03038B60CB685D
:1023900002EA0302CA60607910280CD140F20043BF
:1023A000C4F201039A6842EA05029A60DA6842EAD6
:1023B0000502DA6016E040F20042C4F20102024473
:1023C000136843EA050313600CE0017940F200430F
:1023D000C4F2010319440A6803686FEA030302EABE
:1023E00003020A6030BC704740F20043C4F20103AC
:1023F0001A685B69184208BF002003D010420CBF66
:10240000002001207047C04640F20043C4F201039F
:102410005861704782B041F20002C4F202021368B0
:1024200043F001031360516840F20003CFF6FF034D
:1024300001EA0301516011684FF6FF73CFF6F663AE
:1024400001EA03011160136823F4802313605368C9
:1024500023F4FE0353604FF41F039360A3F51F039F
:1024600001930093136843F48033136041F2000337
:102470001A46C4F20202136803F400330093019B6E
:1024800003F101030193009B1BB9019BB3F5A06FFE
:10249000F1D141F20003C4F202031B6813F4003FC0
:1024A00019BF0123009300230093009B012B46D109
:1024B00042F20002C4F20202136843F010031360F8
:1024C000136823F003031360136843F002031360DF
:1024D00041F20002C4F20202536853605368536031
:1024E000536843F480635360536823F47C13536050
:1024F000536843F4E8135360136843F08073136028
:1025000041F200031A46C4F20202136813F0007F7E
:10251000FBD041F20002C4F20202536823F003032D
:102520005360536843F00203536041F200031A46BC
:10253000C4F20202536803F00C03082BFAD14EF6E2
:102540000053CEF200034FF000629A6002B0704771
:10255000002103E00A4B5B584350043109480A4B01
:1025600042189A42F6D3094A02E0002342F8043B9B
:10257000074B9A42F9D3FFF74DFFFEF74DFF704727
:10258000982500080000002004000020040000201E
:082590006C000020FEE70000D2
:042598000000C84136
:0400000508000110DE
:00000001FF
